:1000000018EF00F0EA6A070EE96EEF5010E00F0EED
:10001000016EBF0E006E0400002EFDD7012EF9D731
:100020008F0E006E002EFED70400EF2EF0D71200C8
:10003000F86AD08EC150C00B0F09C16E070EB46EA6
:10004000000E936EFF0E956E816A83CF05F005500A
:10005000FB0F3EE2050F6AEF00F08168640E076E49
:10006000D1DF816A640E076ECDDF32D0C30E816EA0
:10007000640E076EC7DF3C0E816E640E076EC2DF32
:1000800027D0AA0E816E640E076EBCDF550E816EFE
:10009000640E076EB7DF1CD0800E816E010E066EF7
:1000A0000650070807E3320E076EACDFD8908132A6
:1000B000062AF6D7320E076EA5DF0AD0F00E816E43
:1000C000640E076E9FDF0F0E816E640E076E9ADF5F
:1000D000BCD7FFD7E824F76AF736EF0FF66E000EAD
:1000E000F7220A00F550FA6E0800F550F96E5A0032
:0800F0006C0082009800BC00C6
:020000040030CA
:0E000000240E391E008020000FC00FE00F40BC
:00000001FF
;PIC18F4550
;CRC=781C  CREATED="12-Ìבס-24 17:56"
