:020000040000FA
:040800002AEF04F0E7
:08080800EA6A050EE96EEF50EB
:1008100010E00F0E016EBF0E006E0400002EFDD71B
:10082000012EF9D78F0E006E002EFED70400EF2E9A
:10083000F0D71200938881A801D0FCD7320E056E44
:10084000E3DF938881B801D0FCD7320E056EDCDF80
:1008500037EF04F0F86AD08EC150C00B0F09C16E9B
:10086000070EB46EFF0E936E000E956EE3D7010E69
:060870008326FCD7030003
:020000040030CA
:0E000000240E3F1E008081000FC00FA00F4095
:00000001FF
;PIC18F4550
;CRC=9B58  CREATED="19-Ìבס-24 18:02"
