:10000000E9EF00F0F76A140FF66E000EF722090010
:10001000F5501200280C01060C004D494B524F4C74
:10002000414200002A2A2A2A2A00202020202000DB
:10003000EA6A080EE96EEF5010E00F0E016EBF0E77
:10004000006E0400002EFDD7012EF9D78F0E006E32
:10005000002EFED70400EF2EF0D712000FB002D012
:100060008A9801D08A8893980FB202D08A9A01D0D8
:100070008A8A939A0FB402D08A9C01D08A8C939C6E
:100080000FB602D08A9E01D08A8E939E060E006E15
:10009000002EFED7000093968A860400C70E006EDD
:1000A000002EFED7000093968A96120093948A94AD
:1000B0000C5203E093948A8402D093948A94020EA3
:1000C000006E002EFED700D0000093968A960D3861
:1000D0000E6E0F0E0E160EC00FF0C0DF0D500F0B80
:1000E0000E6E0F6EBBDF120093948A9493968A96DD
:1000F00093928A920A0E086E9BDF056A05500208E9
:1001000008E3030E0F6EAADF020E086E91DF052AC8
:10011000F5D7020E0F6EA2DF056A0550030814E33F
:10012000036A0550F2CF06F0F29CF29E6BDF06BC2C
:10013000F28C06BEF28E066E0C6A0D6EB7DF010EF3
:10014000086E76DF052AE9D7F2EF00F0092C01D01E
:1001500003D0400E0A6E01D00A6A010E085C0A261E
:100160000A5080090B6E0C6A0D6EA0DF120007505A
:100170000C0A05E0060A0BE0020A0FE013D00C6A35
:10018000010E0D6E93DF010E086E52DF10D0010ECE
:10019000086E020E096EDADF0AD00C6A100E0D6EC0
:1001A00085DF05D0010E0C6E07C00DF07FDFE3EF99
:1001B00000F00900F5520CE0F6CF05F0F7CF06F09D
:1001C000F5CF07F0D4D705C0F6FF06C0F7FFF1D78B
:1001D0001200F86AD08EC150C00B0F09C16E070E15
:1001E000B46E82D7180EF66E000EF76EE2DF040EC4
:1001F000086E010E096EAADF1A0EF66E000EF76E7B
:10020000D8DF050E086E020E096EA0DF240EF66E12
:10021000000EF76ECEDF020E056EFA0E086E08DFD6
:10022000052EFBD7050E086E020E096E8FDF2A0E13
:10023000F66E000EF76EBDDF020E056EFA0E086E4A
:0A024000F7DE052EFBD7DDD7FFD750
:020000040030CA
:0E000000240E391E008020000FC00FE00F40BC
:00000001FF
;PIC18F4550
;CRC=E7AE  CREATED="23-Απρ-24 17:19"
