:0400000075EF00F0A8
:080008000000000000000000F0
:100010000000000000000000046ED8CF05F0E0CF23
:1000200006F00001E9CF0CF0EACF07F0E1CF08F0CD
:10003000E2CF09F0D9CF0AF0DACF0BF0F3CF12F00C
:10004000F4CF13F0FACF14F000C00EF001C00FF09F
:1000500002C010F003C011F0F2AA32EF00F0F2B4C7
:1000600053EF00F00EC000F00FC001F010C002F01E
:1000700011C003F00CC0E9FF07C0EAFF078E08C0FB
:10008000E1FF09C0E2FF0AC0D9FF0BC0DAFF12C0CE
:10009000F3FF13C0F4FF14C0FAFF045006C0E0FFE2
:1000A00005C0D8FF1000F80ED76EAD0ED66E1650F4
:1000B000D8B417061606165207E1175205E1176A5B
:1000C000140E166EFF0E811AF29432EF00F0850EB8
:1000D000D56EF80ED76EAD0ED66EF28AC00EF21245
:1000E000000E936E816A83EF00F0F86AF194D08E6F
:1000F000078E176A140E166EC150C00B0F09C16E21
:0A010000070EB46EE4D7FFD7FFD757
:020000040030CA
:0E000000240E391E008020000FC00FE00F40BC
:00000001FF
;PIC18F4550
;CRC=FB69  CREATED="16-Απρ-24 17:33"
