:020000040000FA
:040800001AEF04F0F7
:08080800EA6A070EE96EEF50E9
:1008100010E00F0E016EBF0E006E0400002EFDD71B
:10082000012EF9D78F0E006E002EFED70400EF2E9A
:10083000F0D71200F86AD08EC150C00B0F09C16EFC
:10084000070EB46E000E936EFF0E956E816A83CF15
:1008500005F00550FB0F3EE2050F6CEF04F08168D8
:10086000640E076ED1DF816A640E076ECDDF32D071
:10087000C30E816E640E076EC7DF3C0E816E640E80
:10088000076EC2DF27D0AA0E816E640E076EBCDF32
:10089000550E816E640E076EB7DF1CD0800E816E20
:1008A000010E066E0650070807E3320E076EACDF36
:1008B000D8908132062AF6D7320E076EA5DF0AD00D
:1008C000F00E816E640E076E9FDF0F0E816E640E58
:1008D000076E9ADFBCD70300E824F76AF736F30FF8
:1008E000F66E080EF7220A00F550FA6E0800F55071
:0C08F000F96E5E08700886089C08C008BD
:020000040030CA
:0E000000240E3F1E008081000FC00FA00F4095
:00000001FF
;PIC18F4550
;CRC=7705  CREATED="12-Ìבס-24 17:56"
