:020000040000FA
:04080000E7EF04F02A
:08080800F76A180FF66E080EE6
:10081000F7220900F5501200280C01060C00456C67
:10082000656374726F6E696373002A2A2A2A2A002C
:10083000EA6A080EE96EEF5010E00F0E016EBF0E6F
:10084000006E0400002EFDD7012EF9D78F0E006E2A
:10085000002EFED70400EF2EF0D712000FB002D00A
:100860008A9801D08A8893980FB202D08A9A01D0D0
:100870008A8A939A0FB402D08A9C01D08A8C939C66
:100880000FB602D08A9E01D08A8E939E060E006E0D
:10089000002EFED7000093968A860400C70E006ED5
:1008A000002EFED7000093968A96120093948A94A5
:1008B0000C5203E093948A8402D093948A94020E9B
:1008C000006E002EFED700D0000093968A960D3859
:1008D0000E6E0F0E0E160EC00FF0C0DF0D500F0B78
:1008E0000E6E0F6EBBDF120093948A9493968A96D5
:1008F000C80E086E9DDF056A0550020808E3030E66
:100900000F6EACDF0A0E086E93DF052AF5D7020ED4
:100910000F6EA4DF056A0550030814E3036A05504F
:10092000F2CF06F0F29CF29E6FDF06BCF28C06BEA0
:10093000F28E066E0C6A0D6EB9DF0A0E086E78DF55
:10094000052AE9D7F0EF04F0092C01D003D0400EBE
:100950000A6E01D00A6A010E085C0A260A50800954
:100960000B6E0C6A0D6EA2DF120007500C0A05E038
:10097000060A0BE0020A0FE013D00C6A010E0D6E9E
:1009800095DF040E086E54DF10D0010E086E020EC3
:10099000096EDADF0AD00C6A100E0D6E87DF05D003
:1009A000010E0C6E07C00DF081DFE1EF04F00900CD
:1009B000F5520CE0F6CF05F0F7CF06F0F5CF07F0D3
:1009C000D4D705C0F6FF06C0F7FFF1D71200F86ACA
:1009D000D08EC150C00B0F09C16E070EB46E84D704
:1009E0001C0EF66E080EF76EE2DF030E086E010EA7
:1009F000096EAADF1E0EF66E080EF76ED8DF040E23
:100A0000086E020E096EA0DF2A0EF66E080EF76E53
:060A1000CEDFFFD703005A
:020000040030CA
:0E000000240E3F1E008081000FC00FA00F4095
:00000001FF
;PIC18F4550
;CRC=E31C  CREATED="23-Απρ-24 16:52"
