:020000040000FA
:04080000E1EF05F02F
:080808000000000000000000E8
:100810000000000000000000046ED8CF05F0E0CF1B
:1008200006F00001E9CF0CF0EACF07F0E1CF08F0C5
:10083000E2CF09F0D9CF0AF0DACF0BF0F3CF12F004
:10084000F4CF13F0FACF14F000C00EF001C00FF097
:1008500002C010F003C011F0F2AA32EF04F0F2B4BB
:1008600009EF05F00EC000F00FC001F010C002F05B
:1008700011C003F00CC0E9FF07C0EAFF078E08C0F3
:10088000E1FF09C0E2FF0AC0D9FF0BC0DAFF12C0C6
:10089000F3FF13C0F4FF14C0FAFF045006C0E0FFDA
:1008A00005C0D8FF1000F2CF0DF0F29CF29EF76A5F
:1008B000C60FF66E080EF7220900F5500DBCF28C3B
:1008C0000DBEF28E1200280C01060C00204D494B83
:1008D000524F4C4142002DB002D08A9801D08A88F4
:1008E00093982DB202D08A9A01D08A8A939A2DB415
:1008F00002D08A9C01D08A8C939C2DB602D08A9E0D
:1009000001D08A8E939E060E006E002EFED7000048
:1009100093968A860400C70E006E002EFED7000054
:1009200093968A96120093948A942A5203E09394A1
:100930008A8402D093948A94020E006E002EFED711
:1009400000D0000093968A962B382C6E0F0E2C1632
:100950002CC02DF0C0DF2B500F0B2C6E2D6EBBDF8B
:100960001200272C01D003D0400E286E01D0286A37
:10097000010E265C282628508009296E2A6A2B6ED3
:10098000D2DF1200EA6A260EE96EEF5010E00F0E79
:10099000016EBF0E006E0400002EFDD7012EF9D7A8
:1009A0008F0E006E002EFED70400EF2EF0D712003F
:1009B00025500C0A05E0060A0BE0020A0FE013D0EE
:1009C0002A6A010E2B6EAFDF040E266EDBDF10D01D
:1009D000010E266E020E276EC4DF0AD02A6A100EA0
:1009E0002B6EA1DF05D0010E2A6E25C02BF09BDFF8
:1009F00012000900F5520CE0F6CF23F0F7CF24F0F7
:100A0000F5CF25F0D5DF23C0F6FF24C0F7FFF1D7DF
:100A10001200DB0ED76E610ED66E175004080AE185
:100A2000050E266E020E276E9CDF580EF66E0A0E1D
:100A3000F76EDFDF175008080BE1050E266E020E79
:100A4000276E8FDF5E0EF66E0A0EF76ED2DF176A24
:100A5000172AF29432EF04F02A2A2A2A2A002020A8
:100A60002020200093948A9493968A96166AF2BC6A
:100A7000168CF29CF2BE168EF29EC80E266E82DF97
:100A800016BCF28C16BEF28E186A185002081EE3CD
:100A9000166AF2BC168CF29CF2BE168EF29E030E03
:100AA0002D6E19DF16BCF28C16BEF28E166AF2BCE1
:100AB000168CF29CF2BE168EF29E0A0E266E62DF35
:100AC00016BCF28C16BEF28E182ADFD7166AF2BC5C
:100AD000168CF29CF2BE168EF29E020E2D6EFBDE7E
:100AE00016BCF28C16BEF28E186A185003082AE360
:100AF000036A1850F2CF19F0F29CF29ED4DE19BCB2
:100B0000F28C19BEF28E196E166AF2BC168CF29C2B
:100B1000F2BE168EF29E2A6A2B6E05DF16BCF28C90
:100B200016BEF28E166AF2BC168CF29CF2BE168EBF
:100B3000F29E0A0E266E26DF16BCF28C16BEF28ED0
:100B4000182AD3D7A5EF05F08DD7CA0EF66E080E7A
:100B5000F76E166AF2BC168CF29CF2BE168EF29EEE
:100B600048DF16BCF28C16BEF28E166AF2BC168CEA
:100B7000F29CF2BE168EF29E040E266E010E276EB9
:100B8000F0DE16BCF28C16BEF28ECC0EF66E080E9F
:100B9000F76E166AF2BC168CF29CF2BE168EF29EAE
:100BA00028DF16BCF28C16BEF28E850ED56EF28A48
:100BB000C00EF212DB0ED76E610ED66E176AECEF26
:100BC00005F0F86AF194D08E078EC150C00B0F0962
:0C0BD000C16E070EB46EB8D7FFD703004B
:020000040030CA
:0E000000240E3F1E008081000FC00FA00F4095
:00000001FF
;PIC18F4550
;CRC=112C  CREATED="23-Απρ-24 17:55"
