:040800009BEF04F076
:080808000000000000000000E8
:100810000000000000000000046ED8CF05F0E0CF1B
:1008200006F00001E9CF0CF0EACF07F0E1CF08F0C5
:10083000E2CF09F0D9CF0AF0DACF0BF0F3CF12F004
:10084000F4CF13F0FACF14F000C00EF001C00FF097
:1008500002C010F003C011F0F2AA32EF04F0F2B4BB
:1008600053EF04F00EC000F00FC001F010C002F012
:1008700011C003F00CC0E9FF07C0EAFF078E08C0F3
:10088000E1FF09C0E2FF0AC0D9FF0BC0DAFF12C0C6
:10089000F3FF13C0F4FF14C0FAFF045006C0E0FFDA
:1008A00005C0D8FF1000ED0ED76EBA0ED66E1650EA
:1008B000D8B4170616061850D8B4190618061A50D8
:1008C000D8B41B061A061C50D8B41D061C061652B6
:1008D00007E1175205E1176A020E166E010E811A22
:1008E000185207E1195205E1196A030E186E020E3B
:1008F000811A1A5206E11B5204E11B6A040E1A6E99
:10090000811A1C5207E11D5205E11D6A060E1C6E7C
:10091000080E811AF29432EF04F0850ED56EED0EBA
:10092000D76EBA0ED66EF28AC00EF212000E936E19
:10093000816AB2EF04F0F86AF194D08E078E176ADC
:10094000020E166E196A030E186E1B6A040E1A6EDA
:100950001D6A060E1C6EC150C00B0F09C16E070E3A
:08096000B46EDBD7FFD70300E2
:020000040030CA
:0E000000240E3F1E008081000FC00FA00F4095
:00000001FF
;PIC18F4550
;CRC=69F0  CREATED="16-Απρ-24 18:04"
