:040000003DEF02F0DE
:080008000000000000000000F0
:100010000000000000000000046ED8CF05F0E0CF23
:1000200006F00001E9CF0CF0EACF07F0E1CF08F0CD
:10003000E2CF09F0D9CF0AF0DACF0BF0F3CF12F00C
:10004000F4CF13F0FACF14F000C00EF001C00FF09F
:1000500002C010F003C011F0F2AA32EF00F0F2B4C7
:100060007EEF01F00EC000F00FC001F010C002F0F2
:1000700011C003F00CC0E9FF07C0EAFF078E08C0FB
:10008000E1FF09C0E2FF0AC0D9FF0BC0DAFF12C0CE
:10009000F3FF13C0F4FF14C0FAFF045006C0E0FFE2
:1000A00005C0D8FF1000F2CF0DF0F29CF29EF76A67
:1000B000C60FF66E000EF7220900F5500DBCF28C4B
:1000C0000DBEF28E1200280C01060C0032B002D0D8
:1000D0008A9801D08A88939832B202D08A9A01D045
:1000E0008A8A939A32B402D08A9C01D08A8C939CDB
:1000F00032B602D08A9E01D08A8E939E060E006E82
:10010000002EFED7000093968A860400C70E006E6C
:10011000002EFED7000093968A96120093948A943C
:100120002F5203E093948A8402D093948A94020E0F
:10013000006E002EFED700D0000093968A963038CD
:10014000316E0F0E311631C032F0C0DF30500F0B60
:10015000316E326EBBDF1200EA6A2B0EE96EEF5091
:1001600010E00F0E016EBF0E006E0400002EFDD7D2
:10017000012EF9D78F0E006E002EFED70400EF2E51
:10018000F0D712002C2C01D003D0400E2D6E01D0E0
:100190002D6A010E2B5C2D262D5080092E6E2F6AA4
:1001A000306EBCDF12002A500C0A05E0060A0BE094
:1001B000020A0FE013D02F6A010E306EAFDF010E7E
:1001C0002B6ECADF10D0010E2B6E020E2C6EDADF02
:1001D0000AD02F6A100E306EA1DF05D0010E2F6EEF
:1001E0002AC030F09BDF12000900F5520CE0F6CF78
:1001F00024F0F7CF25F0F5CF2AF0D5DF24C0F6FFA5
:1002000025C0F7FFF1D712000900F6CF25F0F7CF90
:1002100026F0F5CF2AF0C7DF25C0F6FF26C0F7FF8E
:10022000242EF2D796EF01F02B50016A2A5C03E2EC
:100230002AC000F00CD0006A080E2C6E2A36003658
:100240002B50005CD8B0006E01362C2EF7D7120070
:10025000200E25A8300E266E24C000F024AE08D053
:10026000001E002A00C024F02D0E266E258E25804B
:10027000015024C02AF0640E2B6ED6DF00C024F09B
:10028000300E0124276E24C02AF00A0E2B6ECCDF1C
:10029000300E0024296E300E0124286E26C000F096
:1002A000300E275C04E0258225BE258412D026C0AE
:1002B00027F0200E266E300E285C04E0258025BE37
:1002C000258207D0D8A4258004E127C028F0200E7D
:1002D000276E25B405D025B206D025B007D009D0A9
:1002E00026C02AF060DF27C02AF05DDF28C02AF090
:1002F0005ADF29C02AF057DF9BEF01F0DB0ED76EE3
:10030000610ED66E17500A081AE1460EF66E030EFD
:10031000F76E6ADF050E2B6E020E2C6E33DF480E71
:10032000F66E030EF76E0A0E246E6ED718C024F018
:10033000180E256E8DD70A0E2A6E35DF182A172A59
:10034000F29432EF00F00C00205365636F6E64731B
:100350003D2025640A0093948A9493968A969392FA
:100360008A92166AF2BC168CF29CF2BE168EF29E2F
:100370000A0E2B6EF1DE16BCF28C16BEF28E196AD6
:10038000195002081EE3166AF2BC168CF29CF2BEEB
:10039000168EF29E030E326E99DE16BCF28C16BEDD
:1003A000F28E166AF2BC168CF29CF2BE168EF29E8B
:1003B000020E2B6ED1DE16BCF28C16BEF28E192AFE
:1003C000DFD7166AF2BC168CF29CF2BE168EF29E35
:1003D000020E326E7BDE16BCF28C16BEF28E196AED
:1003E000195003082AE3036A1950F2CF1AF0F29C5D
:1003F000F29E59DE1ABCF28C1ABEF28E1A6E166A82
:10040000F2BC168CF29CF2BE168EF29E2F6A306EF3
:1004100085DE16BCF28C16BEF28E166AF2BC168C05
:10042000F29CF2BE168EF29E010E2B6E95DE16BC6D
:10043000F28C16BEF28E192AD3D720EF02F08BD79A
:10044000CA0EF66E000EF76E166AF2BC168CF29C9F
:10045000F2BE168EF29EC8DE16BCF28C16BEF28E6E
:10046000850ED56EF28AC00EF212DB0ED76E610ECB
:10047000D66E176A186A48EF02F0F86AF194D08EC7
:10048000078EC150C00B0F09C16E070EB46ED7D7CF
:04049000FFD7FFD7BC
:020000040030CA
:0E000000240E391E008020000FC00FE00F40BC
:00000001FF
;PIC18F4550
;CRC=C8AB  CREATED="23-Απρ-24 18:16"
